:100920001209561209571209581209598E088F09CF
:10093000E50964014508700512080080E9E50964CD
:0A09400002450870E11208E380DCB4
:01095600227E
:01095700227D
:01095800227C
:1008000012095A1209598E088F09E5096401450831
:10081000703112095E1209598E088F09E5096401C9
:100820004508700512095B80DAE509640245087025
:100830000512095C80CDE5096403450870C51209FD
:100840005D80C0E50964024508703112095F120934
:10085000598E088F09E50964014508700512096081
:1008600080A1E5096402450870051209618094E5DC
:100870000964034508708C1209628087E5096403E6
:10088000450870371209631209598E088F09E50966
:10089000640145087006120964020803E509640250
:1008A00045087006120965020803E5096403450856
:1008B0006003020803120966020803E5096404459F
:1008C000087006120967020803E509640545087007
:1008D00006120968020803E5096406450860030278
:0308E000080322E8
:1008E3001209691209598E088F09E509640145083F
:1008F300700512096A80ECE5096402450870051267
:10090300096B80DFE50964034508700512096C80F3
:0D091300D2E5096404450870CA12096D227E
:01095900227B
:01095A00227A
:01095B002279
:01095C002278
:01095D002277
:01095E002276
:01095F002275
:010960002274
:010961002273
:010962002272
:010963002271
:010964002270
:01096500226F
:01096600226E
:01096700226D
:01096800226C
:01096900226B
:01096A00226A
:01096B002269
:01096C002268
:01096D002267
:01096E002266
:01096F002265
:0300000002094AA8
:0C094A00787FE4F6D8FD758109020920D1
:00000001FF
